T2021 12345678912AB3       T KIMBERLY RAMSEY                                                                 KIMBERLY RAMSEY                                                                 89 FORBES CIR                           HAMDEN                                  CT065142388               00000011KIMBERLY RAMSEY                         2032881234     kimberly.ramsey.8394@gmail.com                                                                                                               00000001          I                                                                                                                                                                                                                                      
A20211     911144442SHOD11 D                        SHODECK INC                                                                     02591 REYNOLDS ALY                       NORWICH                                 CT063607353860253678512345                                                                                                                                                                                                                                                                    00000002                                                                                                                                                                                                                                                 
B2021 HARD2576515534                                  000000000000000000000000000000000000000000000000000000000000000000000000000000000000000000000000000000000000000000000000000000000000000000000000000000347121000000000000000000000000000000000000000000000000000000000000                 JEROME NEIL HARDY                                                               1756 MARIETTA ST                                                                EAST HAVEN                              CT065123856 00000003                                                                                                                                                                                                                                               08
B2021 TEAK2387317097                                  000000000000000000000000000000000000000000000000000000000000000000000000000000000000000000000000000000000000000000000000000000000000000000000000000000275341000000000000000000000000000000000000000000000000000000000000                 FRANKLIN KEVIN TEAK                                                             309 HARLEY VINCENT DR                                                           VERNON                                  CT06066     00000004                                                                                                                                                                                                                                               08
B2021 BILL2486866124                                  000000000000000000000000000000000000000000000000000000000000000000000000000000000000000000000000000000000000000000000000000000000000000000000000000000238423000000000000000000000000000000000000000000000000000000000000                 LOU SANDY BILLINGS                                                              209 BYRD LN                                                                     WATERBURY                               CT06708     00000005                                                                                                                                                                                                                                               08
B2021 MCCE2585308248                                  000000000000000000000000000000000000000000000000000000000000000000000000000000000000000000000000000000000000000000000000000000000000000000000000000000398436000000000000000000000000000000000000000000000000000000000000                 WADE JOHN MCCEDAR                                                               4524 APPLE TRL                                                                  MILFORD                                 CT06461     00000006                                                                                                                                                                                                                                               08
B2021 CEDA2517765928                                  000000000000000000000000000000000000000000000000000000000000000000000000000000000000000000000000000000000000000000000000000000000000000000000000000000136046000000000000000000000000000000000000000000000000000000000000                 AMY CAROL CEDAR-HAWTHORN                                                        2036 JOHNNY PKWY                                                                NORWALK                                 CT068505543 00000007                                                                                                                                                                                                                                               08
B2021 LU  2160030835                                  000000000000000000000000000000000000000000000000000000000000000000000000000000000000000000000000000000000000000000000000000000000000000000000000000000537367000000000000000000000000000000000000000000000000000000000000                 MILDRED LOUISE LU-WILLOW                                                        2231 SKIPS BLVD                                                                 FAIRFIELD                               CT06828     00000008                                                                                                                                                                                                                                               08
B2021 ASH 2416273369                                  000000000000000000000000000000000000000000000000000000000000000000000000000000000000000000000000000000000000000000000000000000000000000000000000000000927196000000000000000000000000000000000000000000000000000000000000                 EVONNE TIFFANY ASH                                                              4610 COVENTRY CT                                                                WILTON                                  CT06897     00000009                                                                                                                                                                                                                                               08
B2021 DAVI2531476268                                  000000000000000000000000000000000000000000000000000000000000000000000000000000000000000000000000000000000000000000000000000000000000000000000000000000648453000000000000000000000000000000000000000000000000000000000000                 RAUL DEAN DAVIS                                                                 4517 HAZELWOOD AVE                                                              NEW HAVEN                               CT06513     00000010                                                                                                                                                                                                                                               08
B2021 DIFI2502580688                                  000000000000000000000000000000000000000000000000000000000000000000000000000000000000000000000000000000000000000000000000000000000000000000000000000000295437000000000000000000000000000000000000000000000000000000000000                 JAY NELSON DI FIORE                                                             728 GENEVA CTR                                                                  HARTFORD                                CT06105     00000011                                                                                                                                                                                                                                               08
B2021 LO  2002284161                                  000000000000000000000000000000000000000000000000000000000000000000000000000000000000000000000000000000000000000000000000000000000000000000000000000000712426000000000000000000000000000000000000000000000000000000000000                 CAROLEE GINA LO                                                                 2149 FLEMING WAY                                                                GREENWICH                               CT06831     00000012                                                                                                                                                                                                                                               08
B2021 MONT2253498801                                  000000000000000000000000000000000000000000000000000000000000000000000000000000000000000000000000000000000000000000000000000000000000000000000000000000144038000000000000000000000000000000000000000000000000000000000000                 ROBIN MINERVA MONTES                                                            2263 SETH TPKE                                                                  NEWINGTON                               CT06111     00000013                                                                                                                                                                                                                                               08
C00000011      000000000000000000000000000000000000000000000000000000000000000000000000000000000000000000000000000000000000000000000000000000000000000000000000000000000000000000000000000000000000000000000000000000000000000000000000000000000004660284000000000000000000000000000000000000000000000000000000000000000000000000000000000000000000                                                                                                                                                                00000014                                                                                                                                                                                                                                                 
K00000011      000000000000000000000000000000000000000000000000000000000000000000000000000000000000000000000000000000000000000000000000000000000000000000000000000000000000000000000000000000000000000000000000000000000000000000000000000000000004660284000000000000000000000000000000000000000000000000000000000000000000000000000000000000000000                                                                                                                                                                00000015                                                                                                                                                                                                                                               08
F00000001000000000000000000000                   00000011                                                                                                                                                                                                                                                                                                                                                                                                                                                          00000016                                                                                                                                                                                                                                                 
